:100000000C9422010C943F010C943F010C943F018D
:100010000C943F010C943F010C943F010C946A0333
:100020000C943F010C943F010C943F010C943F0150
:100030000C943F010C943F010C943F010C943F0140
:100040000C943F010C943F010C94080E0C94610D2C
:100050000C943F010C943F010C943F010C943F0120
:100060000C943F010C943F010C943F010C943F0110
:100070000C943F010C943F010C943F010C943F0100
:100080000C943F010C943F010C943F010C943F01F0
:100090000C943F010C943F010C943F010C943F01E0
:1000A0000C943F010C943F010C943F010C943F01D0
:1000B0000C943F016364696E6F70737578585B00D0
:1000C0004F5554323A204F46460D004F5554323A60
:1000D000204F4E0D004F5554313A204F46460D00EB
:1000E0004F5554313A204F4E0D002352455345543D
:1000F0000041524D3A204C4F434B200D0041524D90
:100100003A204F4E200D00434C503A204C4F434B69
:10011000200D00434C503A204F4E200D000D00544E
:10012000656D703A202D2D2D2D0D00416C61726D85
:10013000206E723A20002A2A2A5261706F72742A45
:100140002A2A0D0041542B434C49503D300D002AC2
:10015000416C61726D20457870616E6465722047F4
:10016000534D2A004154440041545A0D0041544813
:100170000D0041540D0041542B4353510D00415487
:100180000D0041542B434D4744413D2044454C20F4
:10019000414C4C0D0041542B434F4C503D300D0011
:1001A00041542B434D49433D302C31340D004154D3
:1001B0002B434D47463D310D0041542B434E4D4995
:1001C0003D322C322C302C310D0041542B43524502
:1001D000473F0D0041542B434D47533D0052494E7C
:1001E0004700235350592300434C50234C4F434B5B
:1001F00000434C50234F4E00414C41524D234C4F35
:10020000434B00414C41524D234F4E00414C4C2337
:100210004F464600414C4C234F4E004F555432231D
:100220004F4646004F555432234F4E004F555431E0
:10023000234F4646004F555431234F4E00524150F4
:100240004F52540011241FBECFEFD8E0DEBFCDBF08
:1002500013E0A0E0B1E0E8E2F6E202C005900D9202
:10026000A031B107D9F724E0A0E1B3E001C01D92AD
:10027000AD3EB207E1F70E94F6090C9412130C94FC
:100280000000CF93DF93EC01E0E0F0E080E015C0E8
:10029000DE01AE0FBF1F2C9198E0382F3227432F7D
:1002A000417030FF02C038E183278695413009F460
:1002B00080682695915089F73196E617F70741F740
:1002C000DF91CF9108950F931F93CF93DF93CDB715
:1002D000DEB760970FB6F894DEBF0FBECDBF90E1DA
:1002E000E0E0F1E0DE01119601900D929A95E1F7C0
:1002F000DB019C911196EC911197F0E0FE2FEE2717
:10030000E92B803161F4EE7FEE0FFF1FEE0FFF1F30
:10031000EE0FFF1F16969C91E91BF1093C96FF23F7
:100320003CF491E0DA019C93F195E195F10902C06A
:10033000DA011C92883281F4DB0114968C91982F9B
:100340009076903649F086FF02C0EE7F05C085FFAB
:1003500002C0EC7F01C0E87FCF01929582958F703B
:1003600089279F708927D9018C93EF70FF2781E03F
:1003700090E08C0F9D1FE80FF91F8081D8018C93AE
:1003800080E060960FB6F894DEBF0FBECDBFDF9160
:10039000CF911F910F9108950F931F93CF93DF93E8
:1003A000EC018B01B80188810E94F802888381509A
:1003B0008D3F30F4F8018081883211F0803191F75F
:1003C000DF91CF911F910F9108951F93CF93DF93EA
:1003D000CDB7DEB729970FB6F894DEBF0FBECDBFFD
:1003E0008FEF898710E029C0BE016F5F7F4FCE017C
:1003F00009960E94CC0189858F3F21F18E3F11F132
:1004000040E018C0812F90E0242F30E0E1E0F0E0E0
:10041000EC0FFD1FE20FF31F5081880F991F880F0B
:10042000991F880F991F865D9C4FFC01E20FF31FF7
:1004300050834F5F483030F31F5F8985882311F068
:10044000143090F2812F29960FB6F894DEBF0FBEBC
:10045000CDBFDF91CF911F9108950F931F93CF933D
:10046000C82F8B010E94B1020E94A702882351F07D
:10047000B80184E40E944803C13031F00E94AA020E
:1004800080E003C082E001C080E0CF911F910F9116
:1004900008956F927F928F929F92AF92BF92CF9268
:1004A000DF92EF92FF920F931F93CF93DF93CDB71D
:1004B000DEB729970FB6F894DEBF0FBECDBF6C0133
:1004C0005B014A0139010E94B102B6018EEB0E9424
:1004D000480310E00CC0E12EF12C0E94F402E1E090
:1004E000F0E0EC0FFD1FEE0DFF1D80831F5F193044
:1004F00090F369E070E0CE0101960E944101F82E70
:1005000081110BC083019401A501BE016F5F7F4F74
:10051000F60180810E94630104C00F2EF3E0FF2EDC
:10052000F02D8F2D29960FB6F894DEBF0FBECDBFEC
:10053000DF91CF911F910F91FF90EF90DF90CF90BF
:10054000BF90AF909F908F907F906F90089586B1ED
:100550008870089588B1886088B987B1886087B944
:10056000089588B1877F88B987B1886087B980EAA4
:100570008A95F1F79FB7F89487B1877F87B986E1AD
:100580008A95F1F786B188709FBF9AE89A95F1F73E
:10059000339B81E008952FB7F89497B1986097B98D
:1005A0000000882319F097B1977F97B995E09A9545
:1005B000F1F7339B80E09FE09A95F1F797B1977F31
:1005C00097B92FBF0895CF93DF93C82FD8E08C2F12
:1005D00081700E94CB02C6958111C068D150B9F7D5
:1005E0008C2FDF91CF9108958FEF0E94E302089541
:1005F000DF92EF92FF920F931F93CF93DF93D82E4A
:100600008B010E94B102811138C080EF0E94E30289
:10061000E12C6894FF24F6F8D8E081E00E94CB0238
:10062000C82F81E00E94CB02882319F0CC2389F0E7
:1006300026C0C1110EC0FD1438F0F801808180FF82
:1006400008C0FD1004C005C0EF2CC1E002C0EF2CB3
:10065000C1E08C2F0E94CB02F80190819695908387
:10066000CC2311F090689083FA94D150B1F60F5FCB
:100670001F4FF110D1CF8E2D03C08FEF01C08EEF31
:10068000DF91CF911F910F91FF90EF90DF90089530
:100690000F931F93CF93DF93D82F8B010E94B1024A
:1006A0000115110561F085E50E94E302C8E0F8013B
:1006B00081918F010E94E302C150C9F703C08CEC05
:1006C0000E94E3028D2F0E94E302DF91CF911F91E0
:1006D0000F9108951F920F920FB60F9211248F93CE
:1006E0009F93AF93BF9380911F0390912003A0919C
:1006F0002103B09122030196A11DB11D80931F0318
:1007000090932003A0932103B0932203809143048C
:1007100090914404A0914504B09146040097A1052E
:10072000B10559F00197A109B10980934304909351
:100730004404A0934504B09346048091F40390913F
:10074000F503A091F603B091F7030097A105B10559
:1007500059F00197A109B1098093F4039093F5032F
:10076000A093F603B093F70380914A0390914B0353
:10077000A0914C03B0914D030097A105B10559F02C
:100780000197A109B10980934A0390934B03A09369
:100790004C03B0934D0380914F0390915003A0916F
:1007A0005103B09152030097A105B10559F001978B
:1007B000A109B10980934F0390935003A093510373
:1007C000B093520380913F0490914004A091410462
:1007D000B09142040097A105B10559F00197A10914
:1007E000B10980933F0490934004A0934104B093D7
:1007F00042048091A8039091A903A091AA03B0910B
:10080000AB030097A105B105D1F00197A109B1098A
:100810008093A8039093A903A093AA03B093AB037A
:100820008091A8039091A903A091AA03B091AB0372
:10083000892B8A2B8B2B19F481E080932303BF91A2
:10084000AF919F918F910F900FBE0F901F901895B1
:1008500005C083E397E00197F1F7C9019C0121509E
:100860003109892BB1F70895F89460911F037091B5
:1008700020038091210390912203789408950FB66C
:10088000F894A89580916000886180936000109230
:1008900060000FBE80E191E00E94260D80ED97E0A0
:1008A0000E9428048CE191E00E94260D88EE93E0DE
:1008B0000E94280488B18D7F88B988EE93E00E9459
:1008C000280488B1826088B98BB18B7F8BB980E7AF
:1008D00097E10E94280482E791E00E94350D8CEB9D
:1008E00092E00E94280482E791E00E94350D8CEB93
:1008F00092E00E94280482E791E00E94350D8CEB83
:1009000092E00E94280488E691E00E94350D8CEB6D
:1009100092E00E9428048EE791E00E94350D8CEB56
:1009200092E00E9428048EEA91E00E94350D8CEB43
:1009300092E00E94280482E891E00E94350D80EA4E
:100940009FE00E94280484E491E00E94350D80ED30
:1009500097E00E94280489EB91E00E94350D88EE13
:1009600093E00E9428048EEA91E00E94350D88EE03
:1009700093E00E94280480EA91E00E94350D88EE01
:1009800093E00E94280485E991E00E94350D8AE2F7
:1009900091E00E94260D0895813031F461E080E2FB
:1009A00090E00E94CD12089560E080E290E00E9405
:1009B000CD120895813031F461E080E190E00E9431
:1009C000CD12089560E080E190E00E94CD1208957C
:1009D000CF93DF931F92CDB7DEB785E190E00E9401
:1009E000BB1289838981811105C087E091E00E9453
:1009F000350D04C083E191E00E94350D0F90DF9129
:100A0000CF91089586E491E00E94260D8091240301
:100A10006AE070E090E00E94440D83E591E00E945E
:100A2000260D0895813031F460E085E190E00E9468
:100A3000CD12089561E085E190E00E94CD12089505
:100A4000CF93DF931F92CDB7DEB780E190E00E9495
:100A5000BB1289838981813041F48BB180648BB969
:100A600080EE90E00E94350D07C08BB18F7B8BB973
:100A700085ED90E00E94350D0F90DF91CF910895A4
:100A8000CF93DF931F92CDB7DEB780E290E00E9454
:100A9000BB1289838981813029F48BEC90E00E941C
:100AA000350D04C080EC90E00E94350D0F90DF9171
:100AB000CF910895E0EBF0E0808182608083E1EBEC
:100AC000F0E080818760808388E48093B30082E0D7
:100AD0008093700008950E9420050E94400588B10F
:100AE0008D7F88B988EE93E00E94280488B18260E7
:100AF00088B98BB18B7F8BB980E797E10E9428047E
:100B000082E791E00E94350D8CEB92E00E94280470
:100B100082E791E00E94350D8CEB92E00E94280460
:100B200082E791E00E94350D8CEB92E00E94280450
:100B300088E691E00E94350D8CEB92E00E9428043B
:100B40008EE791E00E94350D8CEB92E00E94280424
:100B50008EEA91E00E94350D8CEB92E00E94280411
:100B600082E891E00E94350D80EA9FE00E9428040F
:100B700084E491E00E94350D88EE93E00E94280401
:100B800089EB91E00E94350D88EE93E00E942804E5
:100B90008EEA91E00E94350D88EE93E00E942804D1
:100BA00080EA91E00E94350D88EE93E00E942804CF
:100BB00085E991E00E94350D88EE93E00E942804BB
:100BC0000E945A050895CF93DF931F92CDB7DEB7E9
:100BD000A89580E290E00E94BB12898389818130D0
:100BE00059F48BB18F778BB98CED95E00E94280476
:100BF0008BB180688BB90AC08BB180688BB98CEDE2
:100C000095E00E9428048BB18F778BB90F90DF910C
:100C1000CF910895CF93DF931F92CDB7DEB785E1D3
:100C200090E00E94BB1289838DE691E00E94350D11
:100C3000898181110E94E3050F90DF91CF91089582
:100C4000A8950E94E50180934E0360E070E081E08A
:100C50000E942D028EEE92E00E94280426EA33E0E4
:100C600043EF53E062EF73E08AE293E00E944902AF
:100C7000811123C086E591E00E94260D8091F20348
:100C8000882321F08DE591E00E94260D8091F303E9
:100C90006AE070E090E00E94440D8DE891E00E94CF
:100CA000260D8091A6036AE070E090E00E94440D5A
:100CB0008FE591E00E94260D08958FE191E00E945A
:100CC000350D0895A8958BB18B7F8BB98CED95E090
:100CD0000E9428048BB184608BB984EF91E00E945C
:100CE0002804A89508958BB18B7F8BB984E690E09A
:100CF0000E9428048BB184608BB988EC90E00E943C
:100D00002804A8950895CF93DF93C0E0D0E004C0F5
:100D10000E946206A8952196C330D105CCF3DF91DD
:100D2000CF910895809124038D3210F40E948306A0
:100D30000895CF93DF930FB6F894A8958091600043
:100D4000886180936000109260000FBE84E690E09E
:100D50000E94280484ED91E00E94350D84E690E025
:100D60000E94280483E691E00E94260D84E690E02C
:100D70000E94280487E594E00E94260D84E690E016
:100D80000E94280485E691E00E94260D88EE93E0FB
:100D90000E9428048FE491E00E94350D84E690E0E3
:100DA0000E9428048AE10E94090D88E893E10E94CC
:100DB00028048FE491E00E94350D84E690E00E94C3
:100DC000280484E691E00E94350D84E690E00E94BC
:100DD000280487E594E00E94260D84E690E00E94B6
:100DE000280488E691E00E94260D84E690E00E94A7
:100DF00028048AE10E94090DC0E0D0E003C00E94EF
:100E000073062196C639D105D4F38DE691E00E9490
:100E1000350DDF91CF910895813031F461E085E2A5
:100E200090E00E94CD12089560E085E290E00E947B
:100E3000CD120895813031F460E080E490E00E94AA
:100E4000CD12089561E080E490E00E94CD120895F3
:100E5000CF93DF931F92CDB7DEB780E490E00E947E
:100E6000BB1289838981811102C00E9499060F906B
:100E7000DF91CF910895A89534990FC08CED95E03E
:100E80000E942804349917C08091A703813099F4F7
:100E90001092A7030E9428070895349B0CC082E398
:100EA00090E00E942804349B06C081E08093A70351
:100EB0008BB184608BB90895CF93DF931F92CDB728
:100EC000DEB780E490E00E94BB12898389818111A2
:100ED00005C08DEF90E00E94350D04C081EF90E0D9
:100EE0000E94350D0F90DF91CF9108958F929F92C0
:100EF000AF92BF92CF92DF92EF92FF92CF93DF93A8
:100F000084E690E00E94280484ED91E00E94350D73
:100F100084E690E00E94280483E691E00E94260D7A
:100F200084E690E00E94280488E494E00E94260D64
:100F300084E690E00E94280485E691E00E94260D58
:100F400084E690E00E94280486E391E00E94350D3B
:100F500082E390E00E9428040E94020584E690E06B
:100F60000E9428040E94200684E690E00E94280443
:100F70008BE291E00E94350D87E594E00E94260DFA
:100F800082E390E00E9428048DE191E00E94350DFB
:100F90000E945C0782E390E00E9428040E94E8041B
:100FA00082E390E00E9428040E94200582E390E002
:100FB0000E94280480E290E00E94BB12C82F86E0C5
:100FC00090E00E94BB12C13009F0BEC0813029F40C
:100FD0008BE691E00E94260DBBC08091A803909102
:100FE000A903A091AA03B091AB03892B8A2B8B2B69
:100FF00009F4A5C08090A8039090A903A090AA032B
:10100000B090AB03C501B40124E630E040E050E00D
:101010000E944E0ED22FC32FC22ED32EE42EF52EB9
:1010200085E791E00E94260D80E1C8168EE0D80683
:10103000E104F104D8F1C501B40120E43EE745E044
:1010400050E00E944E0E49015A01C701B60120E14D
:101050003EE040E050E00E944E0E2CE330E040E0E5
:1010600050E00E944E0ED22FC32FC22ED32EE42E5C
:10107000F52E6AE070E0C4010E94440D8FE791E014
:101080000E94260DCD28CE28CF2809F453C081E830
:1010900091E00E94260D6AE070E08D2F9C2F0E9447
:1010A000440D85E891E00E94260D44C08CE3C816EB
:1010B000D104E104F104A0F1C501B40120E737E156
:1010C00040E050E00E944E0E49015A01C701B601AE
:1010D0002CE330E040E050E00E944E0ED62FC72FA8
:1010E000C62ED72EE82EF92E6AE070E0C4010E94C9
:1010F000440D85E891E00E94260DCD28CE28CF280A
:10110000C9F081E891E00E94260D6AE070E08D2F21
:101110009C2F0E94440D8AE891E00E94260D0AC08F
:101120006AE070E08D2F9C2F0E94440D8AE891E0C8
:101130000E94260D85EC91E00E94260D09C08BE6E9
:1011400091E00E94260D04C08FE891E00E94260DD8
:101150008DE191E00E94350D8AE991E00E94260D13
:1011600082E390E00E94280480EB91E00E94260D2B
:1011700082E390E00E94280487EC91E00E94260D13
:101180008AE10E94090DC0E0D0E003C00E9462061F
:101190002196C530D105D4F3DF91CF91FF90EF9028
:1011A000DF90CF90BF90AF909F908F9008950E9456
:1011B00076070895CF93DF931F92CDB7DEB780E314
:1011C00090E00E94BB1289838981811102C00E9434
:1011D000D7080F90DF91CF910895CF93DF931F929F
:1011E000CDB7DEB785E290E00E94BB12898389818A
:1011F000813069F48BB18F778BB980E00E94CC0489
:1012000060E086E090E00E94CD12109225030F90DE
:10121000DF91CF910895CF92DF92EF92FF9280916C
:1012200023038130A9F4109223038BB18F778BB9FC
:1012300080E00E94CC0460E086E090E00E94CD1245
:101240001092250385ED91E00E94260D0E94DA0898
:101250000E9434046B017C0180911203813009F4F7
:1012600050C038F0823009F465C0833009F471C091
:1012700081C080911B0390911C03A0911D03B0912C
:101280001E03A7019601281B390B4A0B5B0B26395D
:1012900031054105510520F081E0809312036AC0B9
:1012A0008091130390911403A0911503B09116033C
:1012B000A7019601281B390B4A0B5B0BDA01C90108
:1012C000883E9340A105B10520F082E0809312038F
:1012D00051C08091170390911803A0911903B09108
:1012E0001A03C81AD90AEA0AFB0A40EDC41647E0F5
:1012F000D406E104F10408F43DC083E080931203B6
:1013000039C09FE088E10FB6F894A89580936000FB
:101310000FBE9093600082E791E00E94350DC0926D
:101320001B03D0921C03E0921D03F0921E03109247
:10133000120320C08AEC91E00E94350DC092130385
:10134000D0921403E0921503F09216031092120348
:1013500011C086E791E00E94350DA8950E94920683
:10136000C0921703D0921803E0921903F0921A0367
:101370001092120380914F0390915003A09151035A
:10138000B0915203892B8A2B8B2B71F488EC90E05F
:10139000A0E0B0E080934F0390935003A0935103DB
:1013A000B09352030E943B0780913F049091400408
:1013B000A0914104B0914204892B8A2B8B2B89F494
:1013C00080EC9DE5A0E0B0E080933F049093400462
:1013D000A0934104B09342040E94ED0880E00E9473
:1013E0000C07FF90EF90DF90CF900895CF93DF939D
:1013F00000D0CDB7DEB778948BB184608BB980E232
:1014000090E00E94BB12898386E090E00E94BB12AC
:101410008A838981813081F58A81813099F48BB109
:1014200080688BB98BEC90E00E94350D81E0809351
:1014300025031092A8031092A9031092AA031092F8
:10144000AB0328C08BB18F778BB980E00E94CC04AE
:1014500060E086E090E00E94CD1210922503109289
:10146000A8031092A9031092AA031092AB038FEE67
:1014700091E00E94260D0EC08BB18F778BB980EC66
:1014800090E00E94350D1092250360E086E090E028
:101490000E94CD120E94ED0880E00E940C078AB1E4
:1014A000846C8AB987B1826087B961E085E390E096
:1014B0000E94CD1283E090E00E94FA0C0E946B051E
:1014C00088EC9AE00E94F50C9FE088E10FB6F89452
:1014D000A895809360000FBE909360000E940B0956
:1014E00083E593E00E94D40DEFCF0E94620684E66C
:1014F00091E00E94350D84E690E00E94280488E483
:1015000094E00E94260D84E690E00E94280488E67C
:1015100091E00E94260D84E690E00E9428048AE172
:101520000E94090D0895CF92DF92EF92FF926B0116
:101530007C0121E0C21AD108E108F1082FE9C216A6
:1015400026E8D20621E0E206F104E8F46B017C0112
:101550008BB180688BB981E00E94CC0460E086E0AA
:1015600090E00E94CD1210922503A4E6B0E0A701FE
:1015700096010E94700E6093A8037093A903809354
:10158000AA039093AB03FF90EF90DF90CF90089564
:10159000AF92BF92CF92DF92EF92FF920F931F9381
:1015A000CF93DF931F92CDB7DEB78C01BC018CEADD
:1015B00093E00E94EA0E63E671E0C8010E94DC0E2F
:1015C0009093A4038093A30363E671E080E090E02E
:1015D0000E94DC0E9093A4038093A3030097B1F0C4
:1015E000FC0101900020E9F73197AF01481B590B2E
:1015F0004F5F5F4F65E470E00E94C3126091A303E8
:101600007091A40388E494E00E94EA0E6FE172E016
:101610008CEA93E00E94DC0E90933E0480933D049C
:101620006FE172E080E090E00E94DC0E90933E0457
:1016300080933D04892BF1F00E94620680913D0465
:1016400090913E04FC0101900020E9F73197AF0131
:10165000481B590B4F5F5F4F60E070E00E94C31260
:1016600060913D0470913E0487E594E00E94EA0E8B
:101670000E94DA0847E050E064E272E0C8010E948C
:10168000CE0E892B09F068C0580127E0A20EB11CCC
:10169000F8018781803251F45801F8E0AF0EB11C97
:1016A000C5010E949E0E6B017C0103C0C12CD12C90
:1016B00076012FE9C21626E8D20621E0E206F104FF
:1016C00021F0F501808181111FC00E9462068BB15B
:1016D00080688BB981E00E94CC0461E086E090E0F4
:1016E0000E94CD121092A8031092A9031092AA038F
:1016F0001092AB0381E0809325030E94DA0881E217
:1017000092E00E94260D65C1D701C6010197A1098B
:10171000B1098E399648A140B105C8F4C701B60198
:101720000E94930A60E086E090E00E94CD1289E377
:1017300092E00E94260D6AE070E0C6010E94440D0E
:101740008BE492E00E94260D1092250342C184E5AD
:1017500092E00E94260D3DC165E372E0C8010E943F
:10176000C50E892B59F48BB180648BB90E94620637
:1017700081E00E94DA040E94DA082BC16CE272E078
:10178000C8010E94C50E892B59F48BB18F7B8BB990
:101790000E94620680E00E94DA040E94DA0819C101
:1017A0006BE172E0C8010E94C50E892B91F4109282
:1017B000250360E086E090E00E94CD128BB18F7728
:1017C0008BB90E94620680E00E94CC040E94DA0875
:1017D00000C164E172E0C8010E94C50E892B89F442
:1017E0008BB180648BB98BB180688BB90E94620623
:1017F00081E00E94DA0481E00E94CC040E94DA08B1
:10180000E8C06CE072E0C8010E94C50E892B89F423
:101810008BB18F7B8BB98BB18F778BB90E946206AE
:1018200080E00E94DA0480E00E94CC040E94DA0882
:10183000D0C063E072E0C8010E94C50E892B41F45C
:101840000E94620681E00E941A070E94DA08C1C065
:1018500068EF71E0C8010E94C50E892B41F40E9417
:10186000620680E00E941A070E94DA08B2C062EEA7
:1018700071E0C8010E94C50E892B29F40E94750AE7
:101880000E946206A6C06AEE70E0C8010E94C50E02
:10189000892B29F40E9462060E943F049AC06DE3DE
:1018A00072E0C8010E94C50E892B19F40E947607C8
:1018B00090C068EE71E0C8010E94C50E892B31F41A
:1018C00081E00E9412050E94DA0883C06DED71E08C
:1018D000C8010E94C50E892B29F40E940A060E94A5
:1018E000620677C061EF71E0C8010E94C50E892BC6
:1018F00031F480E00E9412050E94DA086AC068E9AB
:1019000072E0C8010E94F10E892B29F1CE010196E7
:101910009F938F938EE992E09F938F931F930F93E2
:101920000E94770F0F900F900F900F900F900F90D5
:10193000019709F04EC089818F3148F424E6829FD7
:10194000C00111246FE170E00E943A0E01C064E60C
:10195000609324033EC069EA72E0C8010E94E10E70
:10196000892B71F064EB72E0C8010E94E10E892BB3
:1019700039F06FEB72E0C8010E94E10E892B21F46F
:101980008BB184608BB925C06AEC72E0C8010E94FB
:10199000E10E892BE1F065ED72E0C8010E94E10ED5
:1019A000892BA9F066EE72E0C8010E94E10E892B36
:1019B00071F06AEF72E0C8010E94E10E892B39F0E4
:1019C00065E073E0C8010E94E10E892B11F40E94CA
:1019D0003F040F90DF91CF911F910F91FF90EF90F7
:1019E000DF90CF90BF90AF9008959093290380939C
:1019F000280308959093C5008093C400E1ECF0E0C3
:101A000088E1808386E08093C2008081886980833A
:101A100008953FB7F89421E005C0909166049F5F58
:101A2000917020E02111F9CF3FBF209168049217F7
:101A3000E1F3E92FF0E0E759FB4F808390936604D0
:101A4000E1ECF0E08081806280830895CF93DF93A2
:101A5000FC0103C00E94090DFE01EF012196808167
:101A60008111F8CFDF91CF910895CF93DF93FC01DF
:101A700003C00E94090DFE01EF012196849181119E
:101A8000F8CFDF91CF910895CF93DF93CDB7DEB735
:101A900061970FB6F894DEBF0FBECDBFAB01BE019C
:101AA0006F5F7F4F0E94320FCE0101960E94260D7C
:101AB00061960FB6F894DEBF0FBECDBFDF91CF9118
:101AC00008951F920F920FB60F9211248F939F9338
:101AD000EF93FF939091660480916804981779F0D2
:101AE000809168048F5F817080936804E09168043E
:101AF000F0E0E759FB4F80818093C60005C0E1EC20
:101B0000F0E080818F7D8083FF91EF919F918F9195
:101B10000F900FBE0F901F90189590916B048091BD
:101B20006C049817C1F03FB7F89421E08FEF9FEF56
:101B30000EC080916C048F5F8F7780936C04E0916E
:101B40006C04F0E0E359FB4F808190E020E021112C
:101B5000F0CF3FBF08958FEF9FEF08950F931F932E
:101B6000CF93DF93082F192F80916704811109C04B
:101B700014C08D30910559F099234CF0888321963B
:101B800002C0C02FD92F0E948D0D009791F71882A7
:101B900080916704815080936704802F912FDF919B
:101BA000CF911F910F910895CF93DF9320916704F8
:101BB000222359F12091260330912703232B31F45E
:101BC0002091280330912903232BD9F0EC010E94A6
:101BD000AE0D88818823C9F0E0912603F091270398
:101BE000309719F0CE01099501C081E0882369F092
:101BF000E0912803F0912903309739F0CE0109953F
:101C000004C080916C0480936B04DF91CF910895A0
:101C10001F920F920FB60F9211248F939F93EF9301
:101C2000FF938091C600E0916B04EF5FEF77909196
:101C30006C04E91305C080916C0480936B0411C09F
:101C4000882379F08D3029F4909167049F5F9093F9
:101C500067048A3031F0E0936B04F0E0E359FB4F06
:101C60008083FF91EF919F918F910F900FBE0F9006
:101C70001F90189597FB072E16F4009407D077FD58
:101C800009D00E947B0E07FC05D03EF4909581950B
:101C90009F4F0895709561957F4F0895A1E21A2E88
:101CA000AA1BBB1BFD010DC0AA1FBB1FEE1FFF1F00
:101CB000A217B307E407F50720F0A21BB30BE40B50
:101CC000F50B661F771F881F991F1A9469F7609597
:101CD0007095809590959B01AC01BD01CF01089551
:101CE0000E948F0EA59F900DB49F900DA49F800D14
:101CF000911D11240895AA1BBB1B51E107C0AA1F07
:101D0000BB1FA617B70710F0A61BB70B881F991F9C
:101D10005A95A9F780959095BC01CD010895A29F91
:101D2000B001B39FC001A39F700D811D1124911DAF
:101D3000B29F700D811D1124911D08951F93FC0108
:101D400099278827BC01E89411911032E9F31930E2
:101D500010F01E30C8F31B3251F01D3249F4689464
:101D600006C00E94480F610F711D811D911D1191C8
:101D700010531A30B0F33EF49095809570956195AC
:101D80007F4F8F4F9F4F1F910895FB01DC018D9175
:101D9000059080190110D9F3990B0895FB01DC011E
:101DA0004150504030F08D910590801919F4002079
:101DB000B9F7881B990B089540E153E00E940B0F7F
:101DC0000895FB01DC018D91019080190110D9F378
:101DD000990B0895FB01DC0101900D920020E1F7C1
:101DE0000895FB0151915523A9F0BF01DC014D91EC
:101DF00045174111E1F759F4CD010190002049F058
:101E00004D9140154111C9F3FB014111EFCF81E024
:101E100090E001970895FA01A191B081009719F41B
:101E20001097E1F0CD01DC01CD010D90002011F4FF
:101E3000C00113C0FB012191222319F02015D9F70D
:101E4000F3CFFB012191201519F41E92119606C0C3
:101E50002223C1F70D900020A1F7D001FA01A19330
:101E6000B08308954532510520F4423010F00C94AF
:101E70003D0FFB011082CB010895BB274A3031F49E
:101E8000992322F4BDE2909581959F4F0C945E0FAB
:101E9000592F482F372F262F660F771F881F991F1E
:101EA000660F771F881F991F620F731F841F951F6E
:101EB000660F771F881F991F0895BB27FB015527C1
:101EC000AA27880F991FAA1FA41710F0A41B839597
:101ED0005051B9F7A05DAA3308F0A95DA19300970E
:101EE00079F7B111B1931192CB010C945112AEE07C
:101EF000B0E0EDE7FFE00C94EB1285E08C838B897A
:101F00009C899A838983AE01495E5F4F6D897E8982
:101F1000CE0101960E942C112E96E2E00C9407133C
:101F200020FD09C0FC0123FD05C022FF02C0738310
:101F3000628351834083089544FD17C046FD17C056
:101F4000AB01BC01DA01FB01AA0FBB1FEE1FFF1F93
:101F50001094D1F74A0F5B1F6E1F7F1FCB01BA0190
:101F6000660F771F881F991F09C033E001C034E056
:101F7000660F771F881F991F3150D1F7620F711DAF
:101F8000811D911D08950F931F93CF93DF938C01B3
:101F9000C8010E946112EC0197FD08C00E943D1229
:101FA000892BB1F7B801CE010E949F12CE01DF91BB
:101FB000CF911F910F9108958F929F92AF92BF92F0
:101FC000EF92FF920F931F93CF93DF938C01D62F45
:101FD0007A01B22E0E9461129C0133272B32310507
:101FE00031F02D32310561F48B2D8068B82ED1503F
:101FF00011F480E068C0C8010E94611297FDF9CF1A
:10200000CB2DCD7F2B2D207309F58033F9F4AA2435
:10201000AA94AD0E09F443C0C8010E94611297FD55
:102020003EC09C012F7D33272835310549F4C26419
:10203000D250A9F1C8010E94611297FF07C02FC0BA
:10204000B6FE02C0C26001C0C261DA2D812C912CA3
:10205000540120ED280F283080F0C4FF04C0B801DF
:102060000E949F1219C02A3040F0C6FFF8CF2F7D82
:102070003FEE320F363098F727504C2FC501B40190
:102080000E949C0F4B015C01C260D15059F0C80105
:102090000E94611297FFDDCFC1FD04C0AACF812C41
:1020A000912C5401C7FF08C0B094A09490948094E0
:1020B000811C911CA11CB11C2C2FB501A401C701CE
:1020C0000E94900F81E0DF91CF911F910F91FF90BF
:1020D000EF90BF90AF909F908F900895A0E2B0E0F6
:1020E000E4E7F0E10C94DE125C01962E7A01F9012E
:1020F0008E010F5F1F4F680180E2D8011D928A9503
:10210000E9F7D50113968C9080E090E0612C712C5A
:1021100030E061E070E083FC259183FE21918F0126
:10212000522E211103C080E090E092C02E3511F4B0
:10213000009751F1432F50E0481759073CF42D35D3
:1021400059F12D3219F4772009F103C0772009F4F1
:102150006AC0452D469546954695D601A40FB11DFA
:10216000452D47708B0102C0000F111F4A95E2F701
:10217000A8015C91452B4C93651459F0561410F44A
:102180005394E7CF5A94E5CF31E004C07724739499
:1021900001C0712C0196BFCF772019F08E8180622B
:1021A0008E83311103C08824839417C0F6019E01E9
:1021B0002F5D3F4F8081809581932E173F07D1F788
:1021C000F2CFE114F10429F0D7018C93F701319695
:1021D0007F019A94812C9920F9F0C5010E94611227
:1021E00097FD18C0FC01FF2723E0F595E7952A9598
:1021F000E1F7EC0DFD1D208130E0AC014770552763
:1022000002C0359527954A95E2F720FDDACFB50152
:102210000E949F12811087CFE114F10411F0D701C1
:102220001C92C80115C0422F469546954695D60189
:10223000A40FB11D422F47708B0102C0000F111F68
:102240004A95E2F7A8015C91452B4C93622EA2CFF0
:10225000A096EFE00C94FA12A0E0B0E0E2E3F1E126
:102260000C94DE126C01EB015A01FC0117821682FC
:10227000512CF601E380FE01E3FC8591E3FE8191A0
:10228000182FEF01882309F4EEC090E00E943D1260
:10229000892B21F0C6010E94C30FEBCF153241F408
:1022A000FE01E3FC1591E3FE1191EF01153281F47B
:1022B000C6010E94611297FDD4C0412F50E09C01DD
:1022C000332724173507A9F2B6010E949F12CBC00D
:1022D0001A3239F4E3FC1591E3FE1191EF0101E0AC
:1022E00001C000E0F12C20ED210F2A3080F40260C3
:1022F0006F2D70E080E090E040E20E949C0FF62E8F
:10230000FE01E3FC1591E3FE1191EF01ECCF01FF1B
:1023100003C0F11003C0A7C0FF24FA94183619F0C7
:102320001C3651F010C0FE01E3FC1591E3FE119143
:10233000EF01183641F408600460FE01E3FC1591DA
:10234000E3FE1191EF01112309F48DC0612F70E0BC
:1023500084EB90E00E944612892B09F484C000FDB2
:1023600007C0F50180809180C50102965C0102C022
:10237000812C912C1E3651F4F6014681578160E084
:1023800070E0202FC4010E94900F73CF1336A9F480
:1023900001FD02C0FF24F394C6010E94611297FD63
:1023A00060C08114910429F0F4018083C401019676
:1023B0004C01FA94F110F0CF50C01B3559F49E0136
:1023C000A4016F2DC6010E946E10EC01892B09F04B
:1023D00044C03EC0C6010E94C30F97FD42C01F36D5
:1023E00061F128F4143639F1193651F128C0133748
:1023F00071F0153701F123C08114910429F0F40123
:102400006082C40101964C01FA94FF2071F0C6016C
:102410000E9461123C0197FD08C00E943D12892B69
:1024200059F3B601C3010E949F1281149104A9F0CF
:10243000F401108212C0006203C0006101C0006498
:10244000202FA4016F2DC6010E94DC0F811105C051
:10245000F6018381807329F406C000FD0ACF5394EE
:1024600008CF552019F0852D90E002C08FEF9FEF27
:10247000CDB7DEB7EFE00C94FA1291110C94B812BC
:10248000803219F089508550C8F70895FC010590F5
:10249000061621F00020D9F7C00108953197CF0129
:1024A0000895DC01FC01672F71917723E1F73297E2
:1024B00004C07C916D9370836291AE17BF07C8F31F
:1024C0000895CF93DF93EC012B8120FF33C026FFCB
:1024D0000AC02F7B2B838E819F8101969F838E83E1
:1024E0008A8190E029C022FF0FC0E881F9818081B4
:1024F000082E000C990B009719F420622B831AC048
:102500003196F983E8830EC0EA85FB85099597FF2C
:1025100009C02B81019611F080E201C080E1822B7D
:102520008B8308C02E813F812F5F3F4F3F832E83D7
:10253000992702C08FEF9FEFDF91CF910895FB01A4
:10254000238120FF12C026FD10C08F3F3FEF93076D
:1025500061F082832F7D206423832681378121507F
:10256000310937832683992708958FEF9FEF0895C8
:10257000992788270895F999FECF92BD81BDF89AD1
:10258000992780B50895DC01CB0103C02D910E94ED
:10259000CE1241505040D0F70895262FF999FECF22
:1025A0001FBA92BD81BD20BD0FB6F894FA9AF99A70
:1025B0000FBE019608952F923F924F925F926F92B5
:1025C0007F928F929F92AF92BF92CF92DF92EF92C3
:1025D000FF920F931F93CF93DF93CDB7DEB7CA1B44
:1025E000DB0B0FB6F894DEBF0FBECDBF09942A886F
:1025F000398848885F846E847D848C849B84AA8417
:10260000B984C884DF80EE80FD800C811B81AA81A3
:10261000B981CE0FD11D0FB6F894DEBF0FBECDBF6E
:08262000ED010895F894FFCFCD
:102628000001010202030404050606070708090958
:1026380041542B43504F57443D310D0077797379FE
:102648006C616D20637077640D00696E69636A61FF
:102658006C697A616A636A61207A616B6F6E637A0A
:102668006F6E61200D005369676E616C2047534D92
:102678003A2000250D0054656D703A20002D002089
:10268800430D002200220D003B0D004F5554323AF5
:10269800204F4E0D004F5554323A204F4E200068BF
:1026A80000203A20006D696E2E0073656B2E004F76
:1026B8005554323A204F46460D004D6F64656C3ACA
:1026C80020457870616E6465722047534D200D0077
:1026D8004669726D776172653A20352E3720283247
:1026E80030323529200D007777772E736F6E667933
:1026F8002E706C0D004F5554322077796C61637AD7
:102708006F6E7920706F20637A617369650D004F71
:102718005554322077796C61637A6F6E792028720C
:1027280065736574207A6173696C616E69612C20C8
:102738007472796220637A61736F7779290D005E0C
:10274800004F55543220776C61637A6F6E79206E32
:1027580061207374616C650D004F55543220776C9D
:1027680061637A6F6E79206E6120002073656B75E6
:102778006E640D00426C61643A204E696570726146
:102788007769646C6F776120776172746F73632007
:10279800637A6173752E20557A796A20312D39391B
:1027A80039393873206C756220393939393920281C
:1027B8007374616C65290D002B4353513A002B4308
:1027C80053513A2025686875002B435245473A20F3
:1027D800302C31002B435245473A20302C34002B03
:1027E800435245473A20302C35002B435245473A4F
:1027F80020302C30002B4350494E3A204E4F542065
:102808005245414459002B4350494E3A204E4F54AB
:1028180020494E53455254454400202B4353513AC6
:1028280020302C30002B435245473A20302C3300BF
:00000001FF
