:100000000C9437010C9454010C9454010C94540139
:100010000C9454010C9454010C9454010C946303FB
:100020000C9454010C9454010C9454010C945401FC
:100030000C9454010C9454010C9454010C945401EC
:100040000C9454010C9454010C944E0E0C94AD0D70
:100050000C9454010C9454010C9454010C945401CC
:100060000C9454010C9454010C9454010C945401BC
:100070000C9454010C9454010C9454010C945401AC
:100080000C9454010C9454010C9454010C9454019C
:100090000C9454010C9454010C9454010C9454018C
:1000A0000C9454010C9454010C9454010C9454017C
:1000B0000C9454016364696E6F70737578585B00BB
:1000C0004552524F523A204E6965646F7A776F6C91
:1000D0006F6E65207A6E616B692077206B6F6D653E
:1000E0006E647A69652E0D0A004F5554323A204FDE
:1000F00046460D004F5554323A204F4E0D004F5595
:1001000054313A204F46460D004F5554313A204F56
:100110004E0D002352455345540041524D3A204C58
:100120004F434B200D0041524D3A204F4E200D00C1
:10013000434C503A204C4F434B200D00434C503A17
:10014000204F4E200D000D0054656D703A202D2D6E
:100150002D2D0D00416C61726D206E723A20002AC7
:100160002A2A5261706F72742A2A2A0D0041542B78
:10017000434C49503D300D002A416C61726D204561
:100180007870616E6465722047534D2A0041544473
:100190000041545A0D004154480D0041540D004196
:1001A000542B4353510D0041540D0041542B434DEA
:1001B0004744413D2044454C20414C4C0D004154A6
:1001C0002B434F4C503D300D0041542B434D494380
:1001D0003D302C31340D0041542B434D47463D31C9
:1001E0000D0041542B434E4D493D322C322C302CC6
:1001F000310D0041542B435245473F0D0041542BD4
:10020000434D47533D0052494E4700235350592315
:1002100000434C50234C4F434B00434C50234F4E14
:1002200000414C41524D234C4F434B00414C4152F5
:100230004D234F4E00414C4C234F464600414C4C01
:10024000234F4E004F555432234F4646004F5554CE
:1002500032234F4E004F555431234F4646004F55E1
:100260005431234F4E005241504F5254000011243C
:100270001FBECFEFD8E0DEBFCDBF13E0A0E0B1E0FE
:10028000EAE0F7E202C005900D92AA34B107D9F76F
:1002900025E0AAE4B3E001C01D92AA33B207E1F75A
:1002A0000E94050A0C9483130C940000FC01680F53
:1002B000791F80E048E1E617F70781F0219198E087
:1002C000382F3227532F517030FD842786955130B7
:1002D00009F480682695915099F7EDCF08950F9312
:1002E0001F93CF93DF93CDB7DEB760970FB6F89427
:1002F000DEBF0FBECDBF90E1E0E0F1E0DE01119680
:1003000001900D929A95E1F7DB01ED91FC91119727
:10031000803159F4EE7F93E0EE0FFF1F9A95E1F7DD
:1003200016969C91E91BF1093C96F7FF07C091E0F6
:10033000DA019C93F195E195F10902C0DA011C9272
:10034000883281F4DB0114968C91982F9076903648
:1003500049F086FF02C0EE7F05C085FF02C0EC7F3A
:1003600001C0E87FCF0144E0969587954A95E1F773
:10037000D9018C93EF70FF2781E090E08C0F9D1FD7
:10038000E80FF91F8081D8018C9380E060960FB64A
:10039000F894DEBF0FBECDBFDF91CF911F910F91BB
:1003A00008950F931F93CF93DF93EC018B01B80156
:1003B00088810E94ED02888381508D3F30F4F801DE
:1003C0008081883211F0803191F7DF91CF911F91B8
:1003D0000F910895EF92FF921F93CF93DF93CDB7C4
:1003E000DEB729970FB6F894DEBF0FBECDBF8FEFF3
:1003F000898787E7E82E83E0F82E10E08985882337
:10040000F9F01430E9F0BE016F5F7F4FCE0109961D
:100410000E94D10189858E5F823090F0FE01319675
:1004200080E090E02191D701A80FB91F2C9301968D
:1004300088309105B9F71F5F88E0E80EF11CDECF28
:10044000812F29960FB6F894DEBF0FBECDBFDF9186
:10045000CF911F91FF90EF9008950F931F93CF932B
:10046000C82F8B010E94AA020E94A402882349F08F
:10047000B80184E40E943A03C13029F00E94A70227
:1004800002C082E001C080E0CF911F910F910895DA
:100490004F925F926F927F928F929F92AF92BF9294
:1004A000CF92DF92EF92FF920F931F93CF93DF9340
:1004B000CDB7DEB729970FB6F894DEBF0FBECDBF1C
:1004C0006C013B015A0189010E94AA02B6018EEB20
:1004D0000E943A03CE0101967C014E019AE0890EFA
:1004E000911C27010E94EA02F70181937F01E81520
:1004F000F905C1F769E070E0C2010E945601F82ECB
:10050000811108C09501A301B201F60180810E940A
:100510006F0102C083E0F82E8F2D29960FB6F89454
:10052000DEBF0FBECDBFDF91CF911F910F91FF9026
:10053000EF90DF90CF90BF90AF909F908F907F9083
:100540006F905F904F90089586B188700895439A98
:100550003B9A089543983B9A84E793E00197F1F71B
:1005600000C09FB7F8943B98E2EAEA95F1F70000E3
:1005700086B19FBFEBEFF2E03197F1F7339B02C0FA
:100580008870089581E008959FB7F8943B9A22E01F
:100590002A95F1F700C081113B9825E22A95F1F7E1
:1005A000339B80E02EE62A95F1F700C03B989FBF71
:1005B0000895CF93DF93C82FD8E08C2F81700E94CD
:1005C000C402C6958111C068D150B9F78C2FDF9154
:1005D000CF9108958FEF0C94D902DF92EF92FF92A2
:1005E0000F931F93CF93DF93E82E8B010E94AA02F3
:1005F000811135C080EF0E94D902D0E0C0E488EFBD
:10060000D82EDC0E81E00E94C402F82E81E00E9408
:10061000C402882319F0FF2071F023C0F1100BC031
:10062000CE1530F0F801808180FF05C0CE1519F09D
:10063000DC2FFF24F3948F2D0E94C402F8018081E7
:100640008695FF2011F08068F8018083C150CD119C
:10065000D9CF0F5F1F4FC111D2CF8D2F03C08FEFA6
:1006600001C08EEFDF91CF911F910F91FF90EF901E
:10067000DF900895EF92FF921F93CF93DF93182F8F
:10068000EB010E94AA02209771F085E50E94D90231
:100690007E0188E0E80EF11C89910E94D902CE15F6
:1006A000DF05D1F703C08CEC0E94D902812FDF91C6
:1006B000CF911F91FF90EF900C94D90261E080E2FE
:1006C00090E00C943E131F920F920FB60F921124DC
:1006D0008F939F93AF93BF9380916703909168032B
:1006E000A0916903B0916A030196A11DB11D809389
:1006F000670390936803A0936903B0936A038091A2
:10070000900490919104A0919204B0919304009769
:10071000A105B10559F00197A109B1098093900491
:1007200090939104A0939204B09393048091410418
:1007300090914204A0914304B09144040097A10514
:10074000B10559F00197A109B10980934104909333
:100750004204A0934304B093440480919703909182
:100760009803A0919903B0919A030097A105B10550
:1007700059F00197A109B1098093970390939803C9
:10078000A0939903B0939A0380919C0390919D0349
:10079000A0919E03B0919F030097A105B10559F068
:1007A0000197A109B10980939C0390939D03A093A5
:1007B0009E03B0939F0380918C0490918D04A0912F
:1007C0008E04B0918F040097A105B10559F00197EF
:1007D000A109B10980938C0490938D04A0938E0499
:1007E000B0938F048091F5039091F603A091F703E5
:1007F000B091F8030097A105B105D1F00197A109C7
:10080000B1098093F5039093F603A093F703B09397
:10081000F8038091F5039091F603A091F703B0914E
:10082000F803892B8A2B8B2B19F481E080937003BA
:10083000BF91AF919F918F910F900FBE0F901F901E
:100840001895009731F0E3E3F7E03197F1F701975E
:10085000F8CF0895F89460916703709168038091D0
:10086000690390916A03789408950F931F930E94EF
:100870002A0420917103253058F5009152031091FC
:10088000530320915403309155030115110521059F
:10089000310549F4609352037093530380935403DA
:1008A000909355031DC0DC01CB01801B910BA20B63
:1008B000B30B813E9E42A105B10590F01092520308
:1008C00010925303109254031092550381E009C013
:1008D0001092520310925303109254031092550336
:1008E00080E01F910F9108950F931F93CF93DF9393
:1008F0000E942A0400916B0310916C0320916D03F8
:1009000030916E03DC01CB01801B910BA20BB30B6A
:10091000883B9B40A105B10518F580916F038F5F5F
:1009200080936F0380916F038330E0F080E191E06A
:100930000E94750DC8E7D0E088EE93E00E94210484
:10094000A8952197C9F710926F030E942A0460931B
:100950006B0370936C0380936D0390936E039CC044
:1009600010926F030E942A0460936B0370936C03D0
:1009700080936D0390936E030FB6F894A8958091C1
:100980006000886180936000109260000FBE8BE46D
:1009900091E00E94750D80ED97E00E94210487E5AB
:1009A00091E00E94750D88EE93E00E942104419829
:1009B00088EE93E00E942104419A5A9880E797E1DB
:1009C0000E9421048BE991E00E94810D8CEB92E062
:1009D0000E9421048BE991E00E94810D8CEB92E052
:1009E0000E9421048BE991E00E94810D8CEB92E042
:1009F0000E94210481E991E00E94810D8CEB92E03C
:100A00000E94210487EA91E00E94810D8CEB92E024
:100A10000E94210487ED91E00E94810D8CEB92E011
:100A20000E9421048BEA91E00E94810D80EA9FE000
:100A30000E9421048DE691E00E94810D80ED97E0F7
:100A40000E94210482EE91E00E94810D88EE93E0E5
:100A50000E94210487ED91E00E94810D88EE93E0D1
:100A60000E94210489EC91E00E94810D88EE93E0C0
:100A70000E9421048EEB91E00E94810D85E691E0B9
:100A80000E94750D9FE088E10FB6F894A8958093B9
:100A900060000FBE90936000DF91CF911F910F9186
:100AA0000895813011F40C945E0360E080E290E0E0
:100AB0000C943E13813011F461E001C060E080E1EC
:100AC00090E00C943E13CF93DF931F92CDB7DEB727
:100AD00085E190E00E942C1389838981811103C0F4
:100AE00080E391E002C08CE391E00E94810D0F90C1
:100AF000DF91CF91089581E891E00E94750D80917A
:100B000071036AE070E090E00E94900D8EE891E041
:100B10000C94750D813011F460E001C061E085E155
:100B200090E00C943E13CF93DF931F92CDB7DEB7C6
:100B300080E190E00E942C1389838981813021F427
:100B40005E9A89E091E003C05E988EEF90E00E948B
:100B5000810D0F90DF91CF910895CF93DF931F9276
:100B6000CDB7DEB780E290E00E942C1389838981A3
:100B7000813019F484EF90E002C089EE90E00E9489
:100B8000810D0F90DF91CF910895E0EBF0E080812F
:100B900082608083E1EBF0E080818760808388E47D
:100BA0008093B30082E08093700008950E949305C3
:100BB0000E94AD05419888EE93E00E942104419A7D
:100BC0005A9880E797E10E9421048BE991E00E9406
:100BD000810D8CEB92E00E9421048BE991E00E9450
:100BE000810D8CEB92E00E9421048BE991E00E9440
:100BF000810D8CEB92E00E94210481E991E00E943A
:100C0000810D8CEB92E00E94210487EA91E00E9422
:100C1000810D8CEB92E00E94210487ED91E00E940F
:100C2000810D8CEB92E00E9421048BEA91E00E94FE
:100C3000810D80EA9FE00E9421048DE691E00E94F0
:100C4000810D88EE93E00E94210482EE91E00E94E3
:100C5000810D88EE93E00E94210487ED91E00E94CF
:100C6000810D88EE93E00E94210489EC91E00E94BE
:100C7000810D88EE93E00E9421048EEB91E00E94AA
:100C8000810D88EE93E00E9421040C94C505CF935A
:100C9000DF931F92CDB7DEB7A89580E290E00E9467
:100CA0002C1389838981813039F45F988CED95E02C
:100CB0000E9421045F9A06C05F9A8CED95E00E9425
:100CC00021045F980F90DF91CF910895CF93DF9328
:100CD0001F92CDB7DEB785E190E00E942C13898387
:100CE00086E991E00E94810D898181110E94470669
:100CF0000F90DF91CF910895A8950E94EA0180930B
:100D00009B0360E070E081E00E942D028EEE92E095
:100D10000E94210423EF33E040E454E06FE374E0E9
:100D200087E793E00E944802811122C081E991E0A7
:100D30000E94750D80913F04882321F088E991E09D
:100D40000E94750D809140046AE070E090E00E947E
:100D5000900D88EC91E00E94750D8091F3036AE09C
:100D600070E090E00E94900D8AE991E00C94750D7E
:100D700088E491E00C94810D5A9880EB94E00E94F5
:100D800021045A9A8CE691E00C942104A8955A9873
:100D900088E091E00E9421045A9A84EF91E00E9439
:100DA0002104A89508955A9880E490E00E942104B7
:100DB0005A9A86E990E00E942104A89508950E941D
:100DC000BC06A8950E94BC06A8950E94BC06A895E2
:100DD0000895809171038D3210F40C94DF0608950C
:100DE000CF93DF935A980FB6F894A895809160003E
:100DF000886180936000109260000FBE84E690E0EE
:100E00000E9421048DEF91E00E94810D84E690E024
:100E10000E9421048EE991E00E94750D84E690E025
:100E20000E94210484EA94E00E94750D84E690E01B
:100E30000E94210480EA91E00E94750D88EE93E003
:100E40000E94210488E791E00E94810D84E690E0F1
:100E50000E9421048AE10E945D0D88E893E10E94CE
:100E6000210488E791E00E94810D84E690E00E94D1
:100E700021048DE891E00E94810D84E690E00E94BB
:100E8000210484EA94E00E94750D84E690E00E94BB
:100E9000210483EA91E00E94750D84E690E00E94AF
:100EA00021048AE10E945D0DC6E9D0E00E94D306CC
:100EB0002197E1F786E991E0DF91CF910C94810DC4
:100EC000813011F461E001C060E085E290E00C94B3
:100ED0003E13813011F460E001C061E080E490E0F5
:100EE0000C943E13CF93DF931F92CDB7DEB780E40F
:100EF00090E00E942C1389838981811102C00E9495
:100F0000F0060F90DF91CF910895A89532990EC009
:100F10008CED95E00E942104329914C08091F40375
:100F2000813081F41092F4030C947207329B0AC052
:100F300082E390E00E942104329B04C081E0809310
:100F4000F4035A9A0895CF93DF931F92CDB7DEB77B
:100F500080E490E00E942C1389838981811103C071
:100F600086E291E002C08AE191E00E94810D0F903B
:100F7000DF91CF9108958F929F92AF92BF92CF92BF
:100F8000DF92EF92FF92CF9384E690E00E942104DB
:100F90008DEF91E00E94810D84E690E00E94210493
:100FA0008EE991E00E94750D84E690E00E94210494
:100FB00085E994E00E94750D84E690E00E9421048A
:100FC00080EA91E00E94750D84E690E00E94210481
:100FD0008FE591E00E94810D82E390E00E94210460
:100FE0000E947B0584E690E00E9421040E947C061A
:100FF00084E690E00E94210484E591E00E94810D46
:1010000084EA94E00E94750D82E390E00E9421043E
:1010100086E491E00E94810D0E94A30782E390E0A4
:101020000E9421040E94630582E390E00E94210453
:101030000E94930582E390E00E94210480E290E008
:101040000E942C13C82F86E090E00E942C13C13020
:1010500009F097C0813019F486EA91E094C080913C
:10106000F5039091F603A091F703B091F803892B53
:101070008A2B8B2B89F38090F5039090F603A09038
:10108000F703B090F803C501B40124E630E040E076
:1010900050E00E94950E69017A0180EB91E00E9478
:1010A000750D80E1C8168EE0D806E104F10498F1D0
:1010B000C701B60120E13EE040E050E00E94950EFD
:1010C0002CE330E040E050E00E94950E69017A0187
:1010D000C501B40120E43EE745E050E00E94950ED2
:1010E0006AE070E0C9010E94900D8AEB91E00E94D5
:1010F000750DC114D104E104F10409F43FC08CEB77
:1011000091E00E94750D6AE070E0C6010E94900DAA
:1011100080EC91E031C08CE3C816D104E104F10405
:1011200020F1C701B6012CE330E040E050E00E941E
:10113000950E6B017C01C501B40120E737E140E069
:1011400050E00E94950E6AE070E0C9010E94900D87
:1011500080EC91E00E94750DC114D104E104F1040A
:1011600069F08CEB91E00E94750D6AE070E0C601B9
:101170000E94900D85EC91E00E94750D80E092E058
:1011800002C08AEC91E00E94750D86E491E00E9415
:10119000810D85ED91E00E94750D82E390E00E9443
:1011A00021048BEE91E00E94750D82E390E00E9495
:1011B000210482E092E00E94750D8AE10E945D0D9B
:1011C0000E94C6060E94C6060E94C6060E94C60667
:1011D000CF91FF90EF90DF90CF90BF90AF909F9016
:1011E0008F900C94C606CF93DF931F92CDB7DEB7D6
:1011F00080E390E00E942C1389838981811102C0D1
:101200000E94BB070F90DF91CF910895CF93DF939A
:101210001F92CDB7DEB785E290E00E942C13898340
:101220008981813059F45F9880E00E94510560E027
:1012300086E090E00E943E13109272030F90DF91BF
:10124000CF910895CF92DF92EF92FF928091700339
:10125000813099F4109270035F9880E00E945105EC
:1012600060E086E090E00E943E131092720380E1FD
:1012700092E00E94750D0E94F3080E942A046B01FF
:101280007C0180915A03813009F45AC0B0F0823059
:1012900009F46DC0833009F078C08FE991E00E94B5
:1012A000810DA8950E94E906C0925F03D092600369
:1012B000E0926103F092620366C0809163039091B3
:1012C0006403A0916503B0916603A7019601281BF2
:1012D000390B4A0B5B0B263931054105510510F0DE
:1012E00081E02BC080915B0390915C03A0915D0332
:1012F000B0915E03A7019601281B390B4A0B5B0BCB
:10130000DA01C901883E9340A105B10510F082E0E1
:1013100014C080915F0390916003A0916103B0912C
:101320006203C81AD90AEA0AFB0A40EDC41647E06C
:10133000D406E104F10448F183E080935A0325C008
:101340009FE088E10FB6F894A895809360000FBEE7
:10135000909360008BE991E00E94810DC09263033D
:10136000D0926403E0926503F09266030CC083EFB1
:1013700091E00E94810DC0925B03D0925C03E092E9
:101380005D03F0925E0310925A0380919C0390914A
:101390009D03A0919E03B0919F03892B8A2B8B2BD9
:1013A00071F488EC90E0A0E0B0E080939C0390930F
:1013B0009D03A0939E03B0939F030E948507809195
:1013C0008C0490918D04A0918E04B0918F04892B90
:1013D0008A2B8B2BA9F480EC9DE5A0E0B0E08093F4
:1013E0008C0490938D04A0938E04B0938F040E947C
:1013F000060980E0FF90EF90DF90CF900C9460079B
:10140000FF90EF90DF90CF900895CF93DF9300D0BF
:10141000CDB7DEB778945A9A80E290E00E942C1300
:101420008A8386E090E00E942C1389838A81813030
:1014300059F51981113081F45F9A84EF90E00E9490
:10144000810D109372031092F5031092F60310921F
:10145000F7031092F80324C05F9880E00E945105C2
:1014600060E086E090E00E943E13109272031092BA
:10147000F5031092F6031092F7031092F8038AE234
:1014800092E00E94750D0CC05F9889EE90E00E947A
:10149000810D1092720360E086E090E00E943E139E
:1014A0000E94060980E00E9460078AB1846C8AB9B4
:1014B000399A61E085E390E00E943E1383E090E07A
:1014C0000E944E0D0E94D6058DEE9AE00E94490DB5
:1014D00018E10FE00FB6F894A895109360000FBEC6
:1014E000009360000E94220980EA93E00E94150E9A
:1014F0000E942A04C0905603D0905703E0905803EE
:10150000F09059039B01AC012C193D094E095F096C
:1015100069017A0135EFC31631E0D306E104F10425
:10152000C8F26093560370935703809358039093C7
:1015300059030E943504882369F20E947404CACFBB
:101540008DE891E00E94810D84E690E00E942104E4
:1015500085E994E00E94750D84E690E00E942104E4
:1015600083EA91E00E94750D84E690E00E942104D8
:101570008AE10C945D0DCF92DF92EF92FF926B01A6
:101580007C0121E0C21AD108E108F1082FE9C21656
:1015900026E8D20621E0E206F104D0F46B017C01DA
:1015A0005F9A0E945E0360E086E090E00E943E1336
:1015B00010927203A4E6B0E0A70196010E94B70E54
:1015C0006093F5037093F6038093F7039093F80309
:1015D000FF90EF90DF90CF900895AF92BF92CF929F
:1015E000DF92EF92FF920F931F93CF93DF93CDB7CC
:1015F000DEB7CB58D1090FB6F894DEBF0FBECDBF12
:101600008C018091510381110DC081E080935103C1
:101610004FE050E060E570E084EA94E00E941C1323
:101620001092B204B801CE018A5B9F4F0E943C0F1A
:10163000B801CE0101960E943C0F6EE971E0CE0127
:101640008A5B9F4F0E94230F6EE971E080E090E07B
:101650000E94230F009749F04EE050E0BC0185E95D
:1016600094E00E94430F1092A3046EE570E0C8015D
:101670000E94280F0097D9F1FC012181222309F44F
:10168000F6C16C01FFEFCF1ADF0A6EE570E0C6010C
:101690000E94280F009759F18C199D09482FF601D7
:1016A00020E0241738F4319130533A3008F0DAC191
:1016B0002F5FF7CF813208F080E2E82EF12CA701EE
:1016C00060E570E0C6010E94341360E0C701805BF2
:1016D0009F4F0E943E13A701B60184EA94E00E9446
:1016E000430FF701EC55FB4F10820E94C60647E0FE
:1016F00050E06DE472E0C8010E94150F892B09F0DB
:1017000060C0F80187815801803239F0F7E0AF0EF0
:10171000B11CC12CD12C76010DC028E0A20EB11C49
:10172000C5010E94E50E6B017C016F39764881404E
:10173000910521F0F501808181111AC00E94C60631
:101740005F9A0E945E0361E086E090E00E943E1393
:101750001092F5031092F6031092F7031092F8031B
:1017600081E0809372030E94F3088AE592E027C02B
:10177000D701C6010197A109B1098E399648A14048
:10178000B105D8F4C701B6010E94BB0A60E086E04B
:1017900090E00E943E130E94C60682E792E00E94FB
:1017A000750D6AE070E0C6010E94900D84E892E039
:1017B0000E94750D1092720304C08DE892E00E94A1
:1017C000750D47E050E06EE572E0C8010E94150F0C
:1017D000892B39F45E9A0E94C60661E080E190E0B0
:1017E00055C048E050E065E572E0C8010E94150F61
:1017F000892B49F45E980E94C60680E00E945A0533
:101800000E94F30834C164E472E0C8010E940C0F26
:10181000892B59F41092720360E086E090E00E94F8
:101820003E135F980E94C60621C06DE372E0C801B6
:101830000E940C0F892B61F45E9A5F9A0E94C60683
:1018400061E080E190E00E943E130E945E03D8CFE9
:1018500065E372E0C8010E940C0F892B59F45E9871
:101860005F980E94C60680E00E945A0580E00E94B0
:101870005105C6CF6CE272E0C8010E940C0F892BA3
:1018800041F40E94C60660E080E490E00E943E13AE
:10189000B7CF61E272E0C8010E940C0F892B31F4CE
:1018A0000E94C60680E00E946907AACF6BE072E042
:1018B000C8010E940C0F892B19F40E94A00AD7C0FE
:1018C00063E171E0C8010E940C0F892B29F40E948A
:1018D000C6060E947404CBC066E672E0C8010E948E
:1018E0000C0F892B19F40E94BB07C1C061E172E0A3
:1018F000C8010E940C0F892B31F40E94C60660E0DB
:1019000085E190E0C3CF66E072E0C8010E940C0F51
:10191000892B29F40E9466060E94C606A8C06AE1C7
:1019200072E0C8010E940C0F892B31F40E94C60698
:1019300080E00E948A0564CF61ED72E0C8010E94D8
:10194000520F892B41F17E012BE8E20EF11CFF9230
:10195000EF9287ED92E09F938F931F930F930E94D6
:10196000D80F0F900F900F900F900F900F9001973E
:1019700009F07DC0F70180818F3148F4F4E68F9F34
:10198000C00111246FE170E00E94810E01C064E685
:10199000609371036CC062EE72E0C8010E94330F65
:1019A000892B71F06DEE72E0C8010E94330F892B14
:1019B00039F068EF72E0C8010E94330F892B11F4EF
:1019C0005A9A55C063E073E0C8010E94330F892B17
:1019D000E1F06EE073E0C8010E94330F892BA9F09B
:1019E0006FE173E0C8010E94330F892B71F063E34C
:1019F00073E0C8010E94330F892B39F06EE373E066
:101A0000C8010E94330F892B91F50E942A046B01B3
:101A10007C0180914D0390914E03A0914F03B091B2
:101A20005003A7019601281B390B4A0B5B0BDA0107
:101A3000C901883E9340A105B10548F480914C034B
:101A40008F5F80934C03833020F00E9474041092C7
:101A50004C03C0924D03D0924E03E0924F03F0929C
:101A6000500305C080EC90E00E94810D40CEC55728
:101A7000DF4F0FB6F894DEBF0FBECDBFDF91CF9121
:101A80001F910F91FF90EF90DF90CF90BF90AF909C
:101A90000895909376038093750308959093C500FD
:101AA0008093C400E1ECF0E088E1808386E08093DD
:101AB000C20080818869808308952FB7F89490913F
:101AC000B3049F5F91702FBF2091B5049217E1F38B
:101AD000E92FF0E0EA54FB4F80839093B3048091A8
:101AE000C10080628093C1000895CF93DF93EC0121
:101AF0008991882319F00E945D0DFACFDF91CF9173
:101B00000895CF93DF93FC018491EF012196882300
:101B100021F00E945D0DFE01F7CFDF91CF91089576
:101B2000CF93DF93CDB7DEB761970FB6F894DEBFE2
:101B30000FBECDBFAB01BE016F5F7F4F0E94930F01
:101B4000CE0101960E94750D61960FB6F894DEBF26
:101B50000FBECDBFDF91CF9108951F920F920FB6A8
:101B60000F9211248F939F93EF93FF939091B3045F
:101B70008091B504981779F08091B5048F5F8170DA
:101B80008093B504E091B504F0E0EA54FB4F808106
:101B90008093C60005C08091C1008F7D8093C100F5
:101BA000FF91EF919F918F910F900FBE0F901F901B
:101BB00018959091B8048091B904981789F02FB7BF
:101BC000F8948091B9048F5F8F778093B904E09186
:101BD000B904F0E0E654FB4F808190E02FBF0895F8
:101BE0008FEF9FEF08950F931F93CF93DF938C0197
:101BF0008091B404882399F0C02FD12F0E94D90D71
:101C0000181619061CF48D30910539F4188280914C
:101C1000B40481508093B40402C08993EFCFC8010B
:101C2000DF91CF911F910F9108950F931F93CF9341
:101C3000DF932091B404222361F10091730310918A
:101C400074030115110531F4209175033091760369
:101C5000232BD9F0EC010E94F30D88818823C9F071
:101C60000115110561F4E0917503F0917603309749
:101C700081F0CE01DF91CF911F910F910994CE0198
:101C8000F8010995882329F0EECF8091B90480935B
:101C9000B804DF91CF911F910F9108951F920F9279
:101CA0000FB60F9211248F939F93EF93FF93809120
:101CB000C600E091B804EF5FEF779091B904E913A3
:101CC00005C08091B9048093B80412C0882381F0C4
:101CD0008D3031F49091B4049F5F9093B40402C0AE
:101CE0008A3031F0E093B804F0E0E654FB4F808393
:101CF000FF91EF919F918F910F900FBE0F901F90CA
:101D0000189597FB072E16F4009407D077FD09D09D
:101D10000E94C20E07FC05D03EF4909581959F4F1E
:101D20000895709561957F4F0895A1E21A2EAA1B20
:101D3000BB1BFD010DC0AA1FBB1FEE1FFF1FA2177B
:101D4000B307E407F50720F0A21BB30BE40BF50B78
:101D5000661F771F881F991F1A9469F76095709501
:101D6000809590959B01AC01BD01CF0108950E9423
:101D7000D60EA59F900DB49F900DA49F800D911D30
:101D800011240895AA1BBB1B51E107C0AA1FBB1F4A
:101D9000A617B70710F0A61BB70B881F991F5A95F7
:101DA000A9F780959095BC01CD010895A29FB0013F
:101DB000B39FC001A39F700D811D1124911DB29F7F
:101DC000700D811D1124911D08951F93FC01992709
:101DD0008827BC01E89411911032E9F3193010F012
:101DE0001E30C8F31B3251F01D3249F4689406C00E
:101DF0000E94A90F610F711D811D911D119110533A
:101E00001A30B0F33EF490958095709561957F4FB0
:101E10008F4F9F4F1F910895FB01DC018D9105901D
:101E200080190110D9F3990B0895FB01DC01415091
:101E3000504030F08D910590801919F40020B9F7C9
:101E4000881B990B08954AE453E00E946C0F089593
:101E5000FC018191861721F08823D9F799270895ED
:101E60003197CF010895FB01DC018D91019080191C
:101E70000110D9F3990B0895FB01DC0101900D923B
:101E80000020E1F70895FB01DC014150504048F08B
:101E900001900D920020C9F701C01D9241505040A1
:101EA000E0F70895FB0151915523A9F0BF01DC0132
:101EB0004D9145174111E1F759F4CD0101900020F2
:101EC00049F04D9140154111C9F3FB014111EFCF8C
:101ED00081E090E001970895FA01A191B081009707
:101EE00019F41097E1F0CD01DC01CD010D90002037
:101EF00011F4C00113C0FB012191222319F0201518
:101F0000D9F7F3CFFB012191201519F41E921196F8
:101F100006C02223C1F70D900020A1F7D001FA01DD
:101F2000A193B08308954532510520F4423010F05A
:101F30000C949E0FFB011082CB010895BB274A3001
:101F400031F4992322F4BDE2909581959F4F0C9432
:101F5000BF0F592F482F372F262F660F771F881F47
:101F6000991F660F771F881F991F620F731F841FA9
:101F7000951F660F771F881F991F0895BB27FB01C8
:101F80005527AA27880F991FAA1FA41710F0A41B72
:101F900083955051B9F7A05DAA3308F0A95DA193CC
:101FA000009779F7B111B1931192CB010C94B21251
:101FB000AEE0B0E0EEEDFFE00C945C1385E08C83C6
:101FC0008B899C899A838983AE01495E5F4F6D89B5
:101FD0007E89CE0101960E948D112E96E2E00C942E
:101FE000781320FD09C0FC0123FD05C022FF02C0BB
:101FF0007383628351834083089544FD17C046FD77
:1020000017C0AB01BC01DA01FB01AA0FBB1FEE1F19
:10201000FF1F1094D1F74A0F5B1F6E1F7F1FCB016C
:10202000BA01660F771F881F991F09C033E001C0EE
:1020300034E0660F771F881F991F3150D1F7620F68
:10204000711D811D911D08950F931F93CF93DF93F1
:102050008C01C8010E94C212EC0197FD08C00E94C9
:102060009E12892BB1F7B801CE010E940013CE0158
:10207000DF91CF911F910F9108958F929F92AF9210
:10208000BF92EF92FF920F931F93CF93DF938C0138
:10209000D62F7A01B22E0E94C2129C0133272B3216
:1020A000310531F02D32310561F48B2D8068B82E69
:1020B000D15011F480E068C0C8010E94C21297FD9F
:1020C000F9CFCB2DCD7F2B2D207309F58033F9F47B
:1020D000AA24AA94AD0E09F443C0C8010E94C212FA
:1020E00097FD3EC09C012F7D33272835310549F4EB
:1020F000C264D250A9F1C8010E94C21297FF07C062
:102100002FC0B6FE02C0C26001C0C261DA2D812CB0
:10211000912C540120ED280F283080F0C4FF04C01A
:10212000B8010E94001319C02A3040F0C6FFF8CF52
:102130002F7D3FEE320F363098F727504C2FC501D8
:10214000B4010E94FD0F4B015C01C260D15059F0F7
:10215000C8010E94C21297FFDDCFC1FD04C0AACF03
:10216000812C912C5401C7FF08C0B094A094909486
:102170008094811C911CA11CB11C2C2FB501A401C1
:10218000C7010E94F10F81E0DF91CF911F910F9164
:10219000FF90EF90BF90AF909F908F900895A0E236
:1021A000B0E0E5EDF0E10C944F135C01962E7A015E
:1021B000F9018E010F5F1F4F680180E2D8011D9267
:1021C0008A95E9F7D50113968C9080E090E0612C18
:1021D000712C30E061E070E083FC259183FE219159
:1021E0008F01522E211103C080E090E092C02E3565
:1021F00011F4009751F1432F50E0481759073CF470
:102200002D3559F12D3219F4772009F103C07720CB
:1022100009F46AC0452D469546954695D601A40F0A
:10222000B11D452D47708B0102C0000F111F4A954B
:10223000E2F7A8015C91452B4C93651459F05614B4
:1022400010F45394E7CF5A94E5CF31E004C07724DB
:10225000739401C0712C0196BFCF772019F08E8145
:1022600080628E83311103C08824839417C0F601E5
:102270009E012F5D3F4F8081809581932E173F07F0
:10228000D1F7F2CFE114F10429F0D7018C93F701D3
:1022900031967F019A94812C9920F9F0C5010E9412
:1022A000C21297FD18C0FC01FF2723E0F595E795C2
:1022B0002A95E1F7EC0DFD1D208130E0AC0147705F
:1022C000552702C0359527954A95E2F720FDDACFCC
:1022D000B5010E940013811087CFE114F10411F0C1
:1022E000D7011C92C80115C0422F469546954695C8
:1022F000D601A40FB11D422F47708B0102C0000F01
:10230000111F4A95E2F7A8015C91452B4C93622E70
:10231000A2CFA096EFE00C946B13A0E0B0E0E3E94D
:10232000F1E10C944F136C01EB015A01FC0117828F
:102330001682512CF601E380FE01E3FC8591E3FE59
:102340008191182FEF01882309F4EEC090E00E94DC
:102350009E12892B21F0C6010E942410EBCF15326A
:1023600041F4FE01E3FC1591E3FE1191EF011532FA
:1023700081F4C6010E94C21297FDD4C0412F50E0E3
:102380009C01332724173507A9F2B6010E940013D8
:10239000CBC01A3239F4E3FC1591E3FE1191EF0141
:1023A00001E001C000E0F12C20ED210F2A3080F483
:1023B00002606F2D70E080E090E040E20E94FD0F2F
:1023C000F62EFE01E3FC1591E3FE1191EF01ECCF37
:1023D00001FF03C0F11003C0A7C0FF24FA94183610
:1023E00019F01C3651F010C0FE01E3FC1591E3FE1C
:1023F0001191EF01183641F408600460FE01E3FC1E
:102400001591E3FE1191EF01112309F48DC0612FA5
:1024100070E084EB90E00E94A712892B09F484C03D
:1024200000FD07C0F50180809180C50102965C0126
:1024300002C0812C912C1E3651F4F6014681578141
:1024400060E070E0202FC4010E94F10F73CF1336BB
:10245000A9F401FD02C0FF24F394C6010E94C21238
:1024600097FD60C08114910429F0F4018083C401B8
:1024700001964C01FA94F110F0CF50C01B3559F47D
:102480009E01A4016F2DC6010E94CF10EC01892B83
:1024900009F044C03EC0C6010E94241097FD42C00E
:1024A0001F3661F128F4143639F1193651F128C07C
:1024B000133771F0153701F123C08114910429F00D
:1024C000F4016082C40101964C01FA94FF2071F07E
:1024D000C6010E94C2123C0197FD08C00E949E12D4
:1024E000892B59F3B601C3010E9400138114910492
:1024F000A9F0F401108212C0006203C0006101C0A3
:102500000064202FA4016F2DC6010E943D1081118F
:1025100005C0F6018381807329F406C000FD0ACF4F
:10252000539408CF552019F0852D90E002C08FEF0D
:102530009FEFCDB7DEB7EFE00C946B1391110C94C5
:102540001913803219F089508550C8F70895FC019D
:102550000590061621F00020D9F7C00108953197A3
:10256000CF010895DC01FC01672F71917723E1F71A
:10257000329704C07C916D9370836291AE17BF0750
:10258000C8F30895CF93DF93EC012B8120FF33C074
:1025900026FF0AC02F7B2B838E819F8101969F830C
:1025A0008E838A8190E029C022FF0FC0E881F981E3
:1025B0008081082E000C990B009719F420622B8360
:1025C0001AC03196F983E8830EC0EA85FB85099528
:1025D00097FF09C02B81019611F080E201C080E1D4
:1025E000822B8B8308C02E813F812F5F3F4F3F831B
:1025F0002E83992702C08FEF9FEFDF91CF9108952F
:10260000FB01238120FF12C026FD10C08F3F3FEF4A
:10261000930761F082832F7D206423832681378195
:102620002150310937832683992708958FEF9FEF33
:102630000895992788270895DC01CB01FC01F999B9
:10264000FECF06C0F2BDE1BDF89A319600B40D92FE
:1026500041505040B8F70895F999FECF92BD81BD21
:10266000F89A992780B50895DC01CB0103C02D911C
:102670000E943F1341505040D0F70895262FF999FA
:10268000FECF1FBA92BD81BD20BD0FB6F894FA9A55
:10269000F99A0FBE019608952F923F924F925F9242
:1026A0006F927F928F929F92AF92BF92CF92DF9262
:1026B000EF92FF920F931F93CF93DF93CDB7DEB7C7
:1026C000CA1BDB0B0FB6F894DEBF0FBECDBF09945B
:1026D0002A88398848885F846E847D848C849B84B2
:1026E000AA84B984C884DF80EE80FD800C811B81C0
:1026F000AA81B981CE0FD11D0FB6F894DEBF0FBEEF
:0A270000CDBFED010895F894FFCF5E
:10270A000001010202030404050606070708090975
:10271A005A612064757A6F2072657365746F7720C9
:10272A0047534D2C20637A656B616D2032206D69A9
:10273A006E75747920692070727A65727977616D25
:10274A002072657365742E2E2E0D0041542B435052
:10275A004F57443D310D00777973796C616D206371
:10276A007077640D00696E69636A616C697A616A7F
:10277A00636A61207A616B6F6E637A6F6E61200D96
:10278A00005369676E616C2047534D3A2000250D4E
:10279A000054656D703A20002D0020430D00220080
:1027AA00220D003B0D004F5554323A204F4E0D007A
:1027BA004F5554323A204F4E20006800203A2000EC
:1027CA006D696E2E0073656B2E004F5554323A2098
:1027DA004F46460D004D6F64656C3A20457870612E
:1027EA006E6465722047534D200D004669726D77FD
:1027FA006172653A20352E37202832303235292049
:10280A000D007777772E736F6E66792E706C0D00D8
:10281A004F5554322077796C61637A6F6E792070E4
:10282A006F20637A617369650D004F5554322077C2
:10283A00796C61637A6F6E7920287265736574208A
:10284A007A6173696C616E69612C20747279622095
:10285A00637A61736F7779290D004F555432207767
:10286A006C61637A6F6E79206E61207374616C6536
:10287A000D004F55543220776C61637A6F6E792060
:10288A006E6120002073656B756E640D00426C6189
:10289A00643A204E69657072617769646C6F77611A
:1028AA0020776172746F736320637A6173752E2067
:1028BA00557A796A20312D393939393873206C754E
:1028CA006220393939393920287374616C65290DC8
:1028DA00002B4353513A002B4353513A2025686841
:1028EA0075002B435245473A20302C31002B435276
:1028FA0045473A20302C34002B435245473A203082
:10290A002C35002B435245473A20302C30002B43BC
:10291A0050494E3A204E4F54205245414459002BBB
:10292A004350494E3A204E4F5420494E5345525433
:10293A00454400202B4353513A20302C30002B437E
:0A294A005245473A20302C330000BC
:00000001FF
